:020000040800F2
:100000000050002031220008070300080D030008FB
:1000100013030008190300081F0300080000000074
:1000200000000000000000000000000025030008A0
:1000300031030008000000003D03000849030008E8
:100040007922000879220008792200087922000824
:100050007922000879220008792200087922000814
:100060007922000879220008792200087922000804
:1000700079220008792200087922000879220008F4
:1000800079220008792200087922000879220008E4
:1000900079220008792200087922000879220008D4
:1000A00079220008792200087922000879220008C4
:1000B00079220008792200087922000879220008B4
:1000C00079220008792200087922000879220008A4
:1000D0007922000879220008792200087922000894
:1000E0007922000879220008792200080000000027
:1000F0000000000000000000000000000000000000
:0C01000000000000000000005FF808F1A3
:10010C0010B5054C237833B9044B13B10448AFF345
:10011C0000800123237010BD0C00002000000000A3
:10012C00F022000808B5034B1BB103490348AFF399
:10013C00008008BD0000000010000020F022000824
:10014C0080B500AF00F09CFD00F00AF800F084F8D8
:10015C0000F04CF8014801F09DFEFEE7280000205D
:10016C0080B590B000AF07F1180328220021184683
:10017C0002F0B0F83B1D00221A605A609A60DA60F7
:10018C001A610123BB614FF48033FB6100233B6296
:10019C000123BB6202237B634FF48033BB634FF4B8
:1001AC00E013FB6307F11803184600F0CBFD034680
:1001BC00002B01D000F09CF80F237B600223BB6066
:1001CC000023FB604FF480633B6100237B613B1D8C
:1001DC000221184601F038F80346002B01D000F03C
:1001EC0087F800BF4037BD4680BD000080B500AF2A
:1001FC00174B184A1A60164B4FF482725A60144B04
:10020C0000229A60124B0022DA60114B00221A6114
:10021C000F4B00225A610E4B4FF400729A610C4B3B
:10022C001822DA610A4B00221A62094B00225A6228
:10023C00074B00229A62064B0A22DA62044800F04D
:10024C0001F90346002B01D000F052F800BF80BD2D
:10025C00280000200038004080B588B000AF07F1BE
:10026C00100300221A605A609A60DA601E4B9B6978
:10027C001D4A43F0200393611B4B9B6903F0200341
:10028C00FB60FB68184B9B69174A43F008039361AA
:10029C00154B9B6903F00803BB60BB68124B9B6951
:1002AC00114A43F0040393610F4B9B6903F0040361
:1002BC007B607B6801224FF480510C4801F0A4FA5A
:1002CC004FF480533B6101237B610123BB6102230B
:1002DC00FB6107F110031946044801F011F900BF46
:1002EC002037BD4680BD00BF00100240000C01400D
:1002FC0080B400AF72B600BFFEE780B400AFFEE77B
:10030C0080B400AFFEE780B400AFFEE780B400AF6E
:10031C00FEE780B400AFFEE780B400AF00BFBD467F
:10032C0080BC704780B400AF00BFBD4680BC704736
:10033C0080B400AF00BFBD4680BC704780B500AF35
:10034C0000F0E4FC00BF80BD80B485B000AF154B5D
:10035C009B69144A43F001039361124B9B6903F0B0
:10036C000103BB60BB680F4BDB690E4A43F0805343
:10037C00D3610C4BDB6903F080537B607B680A4BC9
:10038C005B68FB60FB6823F0E063FB60FB6843F099
:10039C000073FB60044AFB68536000BF1437BD4612
:1003AC0080BC7047001002400000014080B588B04E
:1003BC0000AF786007F1100300221A605A609A604F
:1003CC00DA607B681B681C4A934231D11B4BDB699A
:1003DC001A4A43F48043D361184BDB6903F480431E
:1003EC00FB60FB68154B9B69144A43F0080393614F
:1003FC00124B9B6903F00803BB60BB684FF42043AE
:10040C003B6102237B610323FB6107F11003194657
:10041C000B4801F075F84FF480433B6100237B617E
:10042C000023BB6107F110031946054801F068F879
:10043C0000BF2037BD4680BD003800400010024090
:10044C00000C014080B582B000AF78607B68002B57
:10045C0001D1012376E07B685B6A002B08D17B68B5
:10046C005B68B3F5827F09D07B680022DA6105E016
:10047C007B6800221A617B6800225A617B6800222B
:10048C009A627B6893F85130DBB2002B06D17B6803
:10049C00002283F850207868FFF788FF7B680222DF
:1004AC0083F851207B681B681A687B681B6822F0F4
:1004BC0040021A607B685B6803F482727B689B68FD
:1004CC0003F404431A437B68DB6803F400631A43A8
:1004DC007B681B6903F002031A437B685B6903F0BA
:1004EC0001031A437B689B6903F400731A437B680E
:1004FC00DB6903F038031A437B681B6A03F0800343
:10050C0042EA03017B689B6A03F400527B681B6818
:10051C000A431A607B689B691A0C7B681B6802F0A3
:10052C0004025A607B681B68DA697B681B6822F4DA
:10053C000062DA617B6800225A657B68012283F8CD
:10054C005120002318460837BD4680BD80B588B0C1
:10055C0000AFF860B9603B601346FB800023FB776B
:10056C00FB6893F85030012B01D102232DE1FB687D
:10057C00012283F8502000F0DBFBB861FB88FB8282
:10058C00FB6893F85130DBB2012B02D00223FB77CE
:10059C0016E1BB68002B02D0FB88002B02D1012393
:1005AC00FB770DE1FB68032283F85120FB680022E6
:1005BC005A65FB68BA681A63FB68FA889A86FB6806
:1005CC00FA88DA86FB6800229A63FB6800229A8715
:1005DC00FB680022DA87FB6800225A64FB68002261
:1005EC001A64FB689B68B3F5004F0FD1FB681B685E
:1005FC001A68FB681B6822F040021A60FB681B68D3
:10060C001A68FB681B6842F480421A60FB681B681E
:10061C001B6803F04003402B07D0FB681B681A686B
:10062C00FB681B6842F040021A60FB68DB68B3F59C
:10063C00006F4FD1FB685B68002B02D0FB8A012B4B
:10064C0042D1FB681B6B1A88FB681B68DA60FB687D
:10065C001B6B9A1CFB681A63FB68DB8E9BB2013B1D
:10066C009AB2FB68DA862FE0FB681B689B6803F084
:10067C000203022B12D1FB681B6B1A88FB681B68E8
:10068C00DA60FB681B6B9A1CFB681A63FB68DB8ED9
:10069C009BB2013B9AB2FB68DA8615E000F048FB8E
:1006AC000246BB69D31A3A689A4203D83B68B3F145
:1006BC00FF3F02D13B68002B06D10323FB77FB687D
:1006CC00012283F851207BE0FB68DB8E9BB2002B70
:1006DC00CAD150E0FB685B68002B02D0FB8A012B6F
:1006EC0044D1FB681A6BFB681B680C3312781A70C8
:1006FC00FB681B6B5A1CFB681A63FB68DB8E9BB296
:10070C00013B9AB2FB68DA8630E0FB681B689B6899
:10071C0003F00203022B13D1FB681A6BFB681B68F6
:10072C000C3312781A70FB681B6B5A1CFB681A632B
:10073C00FB68DB8E9BB2013B9AB2FB68DA8615E054
:10074C0000F0F6FA0246BB69D31A3A689A4203D80B
:10075C003B68B3F1FF3F02D13B68002B06D103236A
:10076C00FB77FB68012283F8512029E0FB68DB8EC4
:10077C009BB2002BC9D1BA693968F86800F062FAEB
:10078C000346002B02D0FB6820225A65FB689B684D
:10079C00002B0AD100233B61FB681B68DB683B61C3
:1007AC00FB681B689B683B613B69FB685B6D002BBE
:1007BC0002D00123FB7703E0FB68012283F8512070
:1007CC00FB68002283F85020FB7F18462037BD467B
:1007DC0080BD80B58CB000AFF860B9607A607B806A
:1007EC000123FB62002387F82B30FB6893F8503011
:1007FC00012B01D1022398E1FB68012283F85020E0
:10080C0000F096FA7862FB6893F8513087F8233041
:10081C00FB685B68FB617B887B8397F82330012B3B
:10082C000FD0FB69B3F5827F07D1FB689B68002B67
:10083C0003D197F82330042B03D0022387F82B30F5
:10084C006DE1BB68002B05D07B68002B02D07B8848
:10085C00002B03D1012387F82B3060E1FB6893F860
:10086C005130DBB2042B03D0FB68052283F85120F6
:10087C00FB6800225A65FB687A689A63FB687A8881
:10088C00DA87FB687A889A87FB68BA681A63FB6810
:10089C007A88DA86FB687A889A86FB6800221A6462
:1008AC00FB6800225A64FB681B681B6803F040035A
:1008BC00402B07D0FB681B681A68FB681B6842F06A
:1008CC0040021A60FB68DB68B3F5006F7CD1FB68F3
:1008DC005B68002B02D07B8B012B6AD1FB681B6BF6
:1008EC001A88FB681B68DA60FB681B6B9A1CFB6838
:1008FC001A63FB68DB8E9BB2013B9AB2FB68DA860B
:10090C0057E0FB681B689B6803F00203022B1BD1AA
:10091C00FB68DB8E9BB2002B16D0FB6A012B13D12C
:10092C00FB681B6B1A88FB681B68DA60FB681B6B27
:10093C009A1CFB681A63FB68DB8E9BB2013B9AB274
:10094C00FB68DA860023FB62FB681B689B6803F07C
:10095C000103012B19D1FB68DB8F9BB2002B14D048
:10096C00FB681B68DA68FB689B6B92B21A80FB68A9
:10097C009B6B9A1CFB689A63FB68DB8F9BB2013BF9
:10098C009AB2FB68DA870123FB6200F0D1F90246C8
:10099C007B6AD31ABA6B9A420BD8BB6BB3F1FF3F8D
:1009AC0007D0032387F82B30FB68012283F85120F2
:1009BC00B5E0FB68DB8E9BB2002BA2D1FB68DB8F12
:1009CC009BB2002B9DD180E0FB685B68002B02D0B2
:1009DC007B8B012B6FD1FB681A6BFB681B680C338C
:1009EC0012781A70FB681B6B5A1CFB681A63FB6845
:1009FC00DB8E9BB2013B9AB2FB68DA865BE0FB684C
:100A0C001B689B6803F00203022B1CD1FB68DB8E76
:100A1C009BB2002B17D0FB6A012B14D1FB681A6B0D
:100A2C00FB681B680C3312781A70FB681B6B5A1C22
:100A3C00FB681A63FB68DB8E9BB2013B9AB2FB68C6
:100A4C00DA860023FB62FB681B689B6803F00103DA
:100A5C00012B19D1FB68DB8F9BB2002B14D0FB68E8
:100A6C001B68DA68FB689B6BD2B21A70FB689B6BD5
:100A7C005A1CFB689A63FB68DB8F9BB2013B9AB2F2
:100A8C00FB68DA870123FB6200F052F902467B6AAD
:100A9C00D31ABA6B9A4203D8BB6BB3F1FF3F02D1A6
:100AAC00BB6B002B07D1032387F82B30FB6801228B
:100ABC0083F8512033E0FB68DB8E9BB2002B9ED178
:100ACC00FB68DB8F9BB2002B99D17A6AB96BF86803
:100ADC0000F0B8F80346002B06D0012387F82B3022
:100AEC00FB6820225A651AE0FB689B68002B0AD130
:100AFC0000237B61FB681B68DB687B61FB681B6800
:100B0C009B687B617B69FB685B6D002B03D00123C9
:100B1C0087F82B3003E0FB68012283F85120FB6837
:100B2C00002283F8502097F82B3018463037BD46FA
:100B3C0080BD000080B588B000AFF860B9603B6044
:100B4C001346FB7100F0F4F80246BB6A9B1A3A6834
:100B5C001344FB6100F0ECF8B861394B1B685B0186
:100B6C001B0DFA6902FB03F37B6154E03B68B3F1A4
:100B7C00FF3F50D000F0DCF80246BB69D31AFA698B
:100B8C009A4202D9FB69002B3DD1FB681B685A685D
:100B9C00FB681B6822F0E0025A60FB685B68B3F5E7
:100BAC00827F11D1FB689B68B3F5004F04D0FB68C2
:100BBC009B68B3F5806F07D1FB681B681A68FB68EC
:100BCC001B6822F040021A60FB689B6AB3F5005F59
:100BDC000FD1FB681B681A68FB681B6822F4005273
:100BEC001A60FB681B681A68FB681B6842F40052A9
:100BFC001A60FB68012283F85120FB68002283F8FD
:100C0C005020032317E07B69002B01D10023FB61EB
:100C1C007B69013B7B61FB681B689A68BB6813406E
:100C2C00BA689A420CBF01230023DBB21A46FB7947
:100C3C009A429BD1002318462037BD4680BD00BF89
:100C4C000800002080B586B002AFF860B9607A6009
:100C5C007B680093BB6800228021F868FFF76AFF6D
:100C6C000346002B07D0FB685B6D43F02002FB684A
:100C7C005A65032300E0002318461037BD4680BD9B
:100C8C0080B500AF084B1B68074A43F01003136094
:100C9C00032000F081FE0F2000F008F8FFF754FB52
:100CAC000023184680BD00BF0020024080B582B0F2
:100CBC0000AF7860124B1A68124B1B7819464FF430
:100CCC007A73B3FBF1F3B2FBF3F3184600F08BFE2F
:100CDC000346002B01D001230EE07B680F2B0AD8B2
:100CEC00002279684FF0FF3000F061FE064A7B6805
:100CFC001360002300E0012318460837BD4680BD71
:100D0C0008000020040000200000002080B400AF88
:100D1C00054B1B781A46054B1B681344034A13609A
:100D2C0000BFBD4680BC704704000020800000203E
:100D3C0080B400AF024B1B681846BD4680BC7047A0
:100D4C008000002080B586B000AF78607B68002BF7
:100D5C0001D1012372E27B681B6803F00103002BB5
:100D6C0000F08780924B5B6803F00C03042B0CD0D3
:100D7C008F4B5B6803F00C03082B12D18C4B5B6818
:100D8C0003F48033B3F5803F0BD1894B1B6803F41C
:100D9C000033002B6CD07B685B68002B68D101237F
:100DAC004CE27B685B68B3F5803F06D1804B1B68D7
:100DBC007F4A43F4803313602EE07B685B68002B22
:100DCC000CD17B4B1B687A4A23F480331360784B2D
:100DDC001B68774A23F4802313601DE07B685B68F3
:100DEC00B3F5A02F0CD1724B1B68714A43F48023CE
:100DFC0013606F4B1B686E4A43F4803313600BE037
:100E0C006B4B1B686A4A23F480331360684B1B6876
:100E1C00674A23F4802313607B685B68002B13D034
:100E2C00FFF786FF386108E0FFF782FF02463B6957
:100E3C00D31A642B01D9032300E25D4B1B6803F426
:100E4C000033002BF0D014E0FFF772FF386108E09C
:100E5C00FFF76EFF02463B69D31A642B01D90323BB
:100E6C00ECE1534B1B6803F40033002BF0D100E092
:100E7C0000BF7B681B6803F00203002B63D04C4B54
:100E8C005B6803F00C03002B0BD0494B5B6803F041
:100E9C000C03082B1CD1464B5B6803F48033002BEE
:100EAC0016D1434B1B6803F00203002B05D07B6863
:100EBC001B69012B01D00123C0E13D4B1B6823F0C2
:100ECC00F8027B685B69DB00394913430B603AE03D
:100EDC007B681B69002B20D0364B01221A60FFF770
:100EEC0027FF386108E0FFF723FF02463B69D31A5E
:100EFC00022B01D90323A1E12D4B1B6803F0020344
:100F0C00002BF0D02A4B1B6823F0F8027B685B693E
:100F1C00DB00274913430B6015E0264B00221A60B7
:100F2C00FFF706FF386108E0FFF702FF02463B6956
:100F3C00D31A022B01D9032380E11D4B1B6803F04C
:100F4C000203002BF0D17B681B6803F00803002B15
:100F5C003AD07B689B69002B19D0174B01221A6081
:100F6C00FFF7E6FE386108E0FFF7E2FE02463B6958
:100F7C00D31A022B01D9032360E10D4B5B6A03F0FA
:100F8C000203002BF0D0012000F09CFA1CE00A4B6D
:100F9C0000221A60FFF7CCFE38610FE0FFF7C8FEA5
:100FAC0002463B69D31A022B08D9032346E100BF42
:100FBC00001002400000424280044242924B5B6AA5
:100FCC0003F00203002BE9D17B681B6803F00403D8
:100FDC00002B00F0A6800023FB758B4BDB6903F024
:100FEC008053002B0DD1884BDB69874A43F080532B
:100FFC00D361854BDB6903F08053BB60BB68012375
:10100C00FB75824B1B6803F48073002B18D17F4B4C
:10101C001B687E4A43F480731360FFF789FE3861C6
:10102C0008E0FFF785FE02463B69D31A642B01D911
:10103C00032303E1754B1B6803F48073002BF0D082
:10104C007B68DB68012B06D16F4B1B6A6E4A43F041
:10105C00010313622DE07B68DB68002B0CD16A4B1B
:10106C001B6A694A23F001031362674B1B6A664AC9
:10107C0023F0040313621CE07B68DB68052B0CD1A6
:10108C00614B1B6A604A43F0040313625E4B1B6A9C
:10109C005D4A43F0010313620BE05B4B1B6A5A4A37
:1010AC0023F001031362584B1B6A574A23F00403C5
:1010BC0013627B68DB68002B15D0FFF739FE3861B3
:1010CC000AE0FFF735FE02463B69D31A41F288323B
:1010DC00934201D90323B1E04B4B1B6A03F002038B
:1010EC00002BEED014E0FFF723FE38610AE0FFF787
:1010FC001FFE02463B69D31A41F28832934201D952
:10110C0003239BE0404B1B6A03F00203002BEED140
:10111C00FB7D012B05D13C4BDB693B4A23F0805313
:10112C00D3617B68DB69002B00F08780364B5B68F2
:10113C0003F00C03082B61D07B68DB69022B46D1D2
:10114C00334B00221A60FFF7F3FD386108E0FFF71C
:10115C00EFFD02463B69D31A022B01D903236DE044
:10116C00294B1B6803F00073002BF0D17B681B6AC2
:10117C00B3F5803F08D1244B5B6823F400327B68C5
:10118C009B68214913434B601F4B5B6823F474121B
:10119C007B68196A7B685B6A0B431B4913434B6082
:1011AC001B4B01221A60FFF7C3FD386108E0FFF703
:1011BC00BFFD02463B69D31A022B01D903233DE044
:1011CC00114B1B6803F00073002BF0D035E0104B73
:1011DC0000221A60FFF7ACFD386108E0FFF7A8FDAC
:1011EC0002463B69D31A022B01D9032326E0064B96
:1011FC001B6803F00073002BF0D11EE07B68DB69E9
:10120C00012B07D1012319E00010024000700040AF
:10121C00600042420B4B5B68FB60FB6803F480325E
:10122C007B681B6A9A4206D1FB6803F470127B68D8
:10123C005B6A9A4201D0012300E00023184618375C
:10124C00BD4680BD0010024080B584B000AF786010
:10125C0039607B68002B01D10123D0E06A4B1B68FD
:10126C0003F007033A689A4210D9674B1B6823F0C6
:10127C00070265493B6813430B60634B1B6803F023
:10128C0007033A689A4201D00123B8E07B681B68D7
:10129C0003F00203002B20D07B681B6803F00403CF
:1012AC00002B05D0594B5B68584A43F4E0635360FC
:1012BC007B681B6803F00803002B05D0534B5B685D
:1012CC00524A43F460535360504B5B6823F0F00276
:1012DC007B689B684D4913434B607B681B6803F02C
:1012EC000103002B40D07B685B68012B07D1474B77
:1012FC001B6803F40033002B15D101237FE07B68BE
:10130C005B68022B07D1414B1B6803F00073002B69
:10131C0009D1012373E03D4B1B6803F00203002B42
:10132C0001D101236BE0394B5B6823F003027B682E
:10133C005B68364913434B60FFF7FAFCF8600AE030
:10134C00FFF7F6FC0246FB68D31A41F2883293424F
:10135C0001D9032353E02D4B5B6803F00C027B682F
:10136C005B689B009A42EBD1274B1B6803F0070389
:10137C003A689A4210D2244B1B6823F00702224988
:10138C003B6813430B60204B1B6803F007033A6860
:10139C009A4201D0012332E07B681B6803F00403FE
:1013AC00002B08D0194B5B6823F4E0627B68DB6888
:1013BC00164913434B607B681B6803F00803002B32
:1013CC0009D0124B5B6823F460527B681B69DB000D
:1013DC000E4913434B6000F021F802460B4B5B683F
:1013EC001B0903F00F030A49CB5C22FA03F3094AE9
:1013FC001360094B1B681846FFF758FC002318466E
:10140C001037BD4680BD00BF0020024000100240D6
:10141C001C230008080000200000002080B487B0C6
:10142C0000AF0023FB600023BB6000237B61002323
:10143C007B6000233B611E4B5B68FB60FB6803F029
:10144C000C03042B02D0082B03D027E0194B3B6173
:10145C0027E0FB689B0C03F00F03174AD35C7B60FF
:10146C00FB6803F48033002B10D0114B5B685B0CD2
:10147C0003F00103114AD35CBB607B680D4A03FB8C
:10148C0002F2BB68B2FBF3F37B6104E07B680C4AAD
:10149C0002FB03F37B617B693B6102E0054B3B6123
:1014AC0000BF3B6918461C37BD4680BC704700BF67
:1014BC000010024000127A000823000818230008CC
:1014CC0000093D0080B485B000AF78600A4B1B6802
:1014DC000A4AA2FB03235B0A7A6802FB03F3FB6054
:1014EC0000BFFB685A1EFA60002BF9D100BF00BF89
:1014FC001437BD4680BC704708000020D34D6210E5
:10150C0080B48BB000AF7860396000237B6200231D
:10151C003B6269E101227B6A02FA03F3FB613B68DF
:10152C001B68FA691340BB61BA69FB699A4240F0C7
:10153C0058813B685B689A4A93425ED0984A9342C2
:10154C0075D8984A934258D0964A93426FD8964A87
:10155C00934252D0944A934269D8944A93424CD0C5
:10156C00924A934263D8924A934246D0904A93420D
:10157C005DD8122B2AD8122B59D801A252F823F07D
:10158C0007160008E1150008F315000835160008C9
:10159C003B1600083B1600083B1600083B160008DB
:1015AC003B1600083B1600083B1600083B160008CB
:1015BC003B1600083B1600083B1600083B160008BB
:1015CC003B160008E9150008FD150008794A9342FE
:1015DC0013D02CE03B68DB683B6229E03B68DB689E
:1015EC0004333B6224E03B68DB6808333B621FE05A
:1015FC003B68DB680C333B621AE03B689B68002B52
:10160C0002D104233B6213E03B689B68012B05D19C
:10161C0008233B627B68FA691A6109E008233B6284
:10162C007B68FA695A6103E000233B6200E000BF6B
:10163C00BB69FF2B01D87B6801E07B6804337B61BD
:10164C00BB69FF2B02D87B6A9B0002E07B6A083BDC
:10165C009B003B617B691A680F213B6901FA03F31C
:10166C00DB431A40396A3B6901FA03F31A437B697D
:10167C001A603B685B6803F08053002B00F0B1806C
:10168C004D4B9B694C4A43F0010393614A4B9B6958
:10169C0003F00103BB60BB68484A7B6A9B080233BA
:1016AC0052F82330FB607B6A03F003039B000F228C
:1016BC0002FA03F3DB43FA681340FB607B68404A91
:1016CC00934213D07B683F4A93420DD07B683E4ACD
:1016DC00934207D07B683D4A934201D1032306E035
:1016EC00042304E0022302E0012300E000237A6AD1
:1016FC0002F0030292009340FA681343FB602F49F7
:10170C007B6A9B080233FA6841F823203B685B68CC
:10171C0003F48013002B06D02D4B9A682C49BB691F
:10172C0013438B6006E02A4B9A68BB69DB4328495C
:10173C0013408B603B685B6803F40013002B06D0EE
:10174C00234BDA682249BB691343CB6006E0204B7C
:10175C00DA68BB69DB431E491340CB603B685B68AE
:10176C0003F40033002B06D0194B5A681849BB6997
:10177C0013434B6006E0164B5A68BB69DB431449B4
:10178C0013404B603B685B6803F48033002B21D023
:10179C000F4B1A680E49BB6913430B6021E000BF65
:1017AC000000321000003110000022100000211047
:1017BC000000121000001110001002400000014047
:1017CC0000080140000C01400010014000140140D1
:1017DC00000401400B4B1A68BB69DB4309491340F9
:1017EC000B607B6A01337B623B681A687B6A22FA66
:1017FC0003F3002B7FF48EAE00BF00BF2C37BD4629
:10180C0080BC70470004014080B483B000AF7860A6
:10181C000B467B8013467B707B78002B03D07A8839
:10182C007B681A6103E07B881A047B681A6100BF2D
:10183C000C37BD4680BC704780B485B000AF786073
:10184C007B6803F00703FB600C4BDB68BB60BA687A
:10185C004FF6FF031340BB60FB681A02BB681343CF
:10186C0043F0BF6343F40033BB60044ABB68D360EE
:10187C0000BF1437BD4680BC704700BF00ED00E0D0
:10188C0080B400AF044BDB681B0A03F00703184657
:10189C00BD4680BC704700BF00ED00E080B483B053
:1018AC0000AF03463960FB7197F90730002B0ADB58
:1018BC003B68DAB20C4997F907301201D2B20B44EB
:1018CC0083F800230AE03B68DAB20849FB7903F09D
:1018DC000F03043B1201D2B20B441A7600BF0C3733
:1018EC00BD4680BC704700BF00E100E000ED00E0A9
:1018FC0080B489B000AFF860B9607A60FB6803F01F
:10190C000703FB61FB69C3F10703042B28BF042306
:10191C00BB61FB690433062B02D9FB69033B00E076
:10192C0000237B614FF0FF32BB6902FA03F3DA4309
:10193C00BB681A407B699A404FF0FF317B6901FA12
:10194C0003F3D9437B680B40134318462437BD4639
:10195C0080BC704780B582B000AF78607B68013B7B
:10196C00B3F1807F01D301230FE00A4A7B68013B6E
:10197C0053600F214FF0FF30FFF790FF054B002213
:10198C009A60044B07221A60002318460837BD469C
:10199C0080BD00BF10E000E080B582B000AF786081
:1019AC007868FFF749FF00BF0837BD4680BD80B59A
:1019BC0086B000AF0346B9607A60FB7300237B618D
:1019CC00FFF75EFF78617A68B9687869FFF790FF76
:1019DC00024697F90F3011461846FFF75FFF00BF1C
:1019EC001837BD4680BD80B582B000AF786078688E
:1019FC00FFF7B0FF034618460837BD4680BD80B4DC
:101A0C0000AF00BFBD4680BC7047000080B584B0FD
:101A1C0000AF7860FF23BB7301224FF480510C4858
:101A2C00FFF7F2FE0023FB730AE007F10E014FF4FF
:101A3C00FA7301227868FEF789FDFB7B0133FB7397
:101A4C00FB7B092BF1D900BF00BF1037BD4680BD11
:101A5C00000C014080B586B000AF786007F1100330
:101A6C0000220021184600F08BFA0023FB73254B53
:101A7C001B78002B01D000233FE07868FFF7C6FFEE
:101A8C0000224FF480512048FFF7BEFE07F11001F1
:101A9C004FF0FF3306227868FEF758FD0346FB75BE
:101AAC0007F10F031946786800F0B8FA03461A4696
:101ABC00FB7D1343FB750AE007F10F0319467868A9
:101ACC0000F0ACFA03461A46FB7D1343FB75FB7B17
:101ADC00012BF1D101224FF480510B48FFF794FEFA
:101AEC00FB7D002B02D1074B01221A70074B012200
:101AFC001A70064B00225A70FB7D18461837BD46EB
:101B0C0080BD00BF87000020000C01408400002035
:101B1C0080B58EB000AF786007F1280300223A211F
:101B2C00184600F02DFA07F1200300223721184641
:101B3C0000F026FA07F1180300222921184600F0BC
:101B4C001FFA07F1100300221A601A710023FB73AD
:101B5C000023BB7300224FF480514F48FFF754FE13
:101B6C0007F128014FF0FF3306227868FEF7EEFCF0
:101B7C00034687F8373007F110014FF0FF33052289
:101B8C00786800F0AAFA03461A4697F837301343E0
:101B9C0087F8373001224FF480513F48FFF734FE6D
:101BAC00BB7C03F01F03002B03D0FB7C5BB2002B30
:101BBC0001DB01236CE0FFF7BBF8386300224FF424
:101BCC0080513548FFF720FE07F120014FF0FF331D
:101BDC0006227868FEF7BAFC03461A4697F83730A7
:101BEC00134387F8373007F10F014FF0FF3305220D
:101BFC00786800F072FA03461A4697F837301343A8
:101C0C0087F8373001224FF480512348FFF7FCFD51
:101C1C0000224FF480512048FFF7F6FD07F1180120
:101C2C004FF0FF3306227868FEF790FC03461A4605
:101C3C0097F83730134387F8373007F10E014FF020
:101C4C00FF330522786800F048FA03461A4697F8E5
:101C5C003730134387F8373001224FF480510E4848
:101C6C00FFF7D2FDBB7B002B10D0BB7B03F0040332
:101C7C00002B01D001230BE0FFF75AF802463B6B17
:101C8C00D31AB3F57A7F99D9032301E000BF00235F
:101C9C0018463837BD4680BD000C014080B58EB06B
:101CAC0000AF786007F1280300223A21184600F0B3
:101CBC0067F907F1200300223721184600F060F97C
:101CCC0007F1180300222921184600F059F907F1F1
:101CDC00100300221A601A710023FB730023BB73DC
:101CEC0000224FF480516948FFF78EFD07F128015F
:101CFC004FF0FF3306227868FEF728FC034687F87E
:101D0C00373007F110014FF0FF330522786800F0EF
:101D1C00E4F903461A4697F83730134387F83730FF
:101D2C0001224FF480515948FFF76EFDBB7C03F044
:101D3C001F03002B03D0FB7C5BB2002B01DB0123C8
:101D4C009FE0FEF7F5FF386300224FF480514F48B7
:101D5C00FFF75AFD07F120014FF0FF330622786898
:101D6C00FEF7F4FB03461A4697F83730134387F80F
:101D7C00373007F10F014FF0FF330522786800F080
:101D8C00ACF903461A4697F83730134387F83730C7
:101D9C0001224FF480513D48FFF736FD00224FF4ED
:101DAC0080513A48FFF730FD07F118014FF0FF332F
:101DBC0006227868FEF7CAFB03461A4697F83730B6
:101DCC00134387F8373007F10E014FF0FF3305222C
:101DDC00786800F082F903461A4697F837301343B7
:101DEC0087F8373001224FF480512848FFF70CFD5B
:101DFC00BB7B002B09D0FEF79BFF02463B6BD31A33
:101E0C00B3F57A7FA0D903233BE000BF00224FF447
:101E1C0080511E48FFF7F8FC07F128014FF0FF3303
:101E2C0006227868FEF792FB03461A4697F837307D
:101E3C00134387F8373007F110014FF0FF330522B9
:101E4C00786800F04AF903461A4697F8373013437E
:101E5C0087F8373001224FF480510C48FFF7D4FC3F
:101E6C007B7C03F04003002B03D0094B00225A70FB
:101E7C0002E0074B01225A70054B02221A7097F8A8
:101E8C00373018463837BD4680BD00BF000C0140C6
:101E9C008400002080B586B000AF786007F1100395
:101EAC0040F255120821184600F06AF807F10803B1
:101EBC0000221A601A717868FFF7CCFD0346FB7597
:101ECC007868FFF7C7FD00224FF480512A48FFF7CE
:101EDC009BFC07F110014FF0FF3306227868FEF7E8
:101EEC0035FB03461A46FB7D1343FB7507F10801CE
:101EFC004FF0FF330522786800F0EFF803461A46DE
:101F0C00FB7D1343FB7501224FF480511A48FFF7F8
:101F1C007BFCFB7D002B20D13B7A03F00403002BD0
:101F2C0008D07868FFF7F4FD03461A46FB7D13438F
:101F3C00FB7513E03B7B552B04D1FB7A03F00F03AD
:101F4C00012B01D0012312E07868FFF7A7FE0346AE
:101F5C001A46FB7D1343FB7500E000BFFB7D002B95
:101F6C0014BF01230023DAB2044B9A70FB7D184690
:101F7C001837BD4680BD00BF000C01408400002016
:101F8C0080B58AB000AFF8600B467A60FB7207F13F
:101F9C001C0300221A609A80FB7A43F04003DBB2E8
:101FAC003B77002387F827301DE097F82730DB00BC
:101FBC0087F8263097F82630FF2202FA03F31A46E8
:101FCC007B681A4097F82630DA4097F82730C3F12F
:101FDC000303D2B228333B4403F80B2C97F8273079
:101FEC00013387F8273097F82730032BDDD907F119
:101FFC001C0107F125030522184600F0B4F803462E
:10200C0087F82130FB681A4607F11C03186810602A
:10201C009B889380F8682837BD4680BD80B586B014
:10202C0002AF78603960FF23FB7307F10F014FF4A7
:10203C007A73009301233A687868FEF7CAFB03466B
:10204C0018461037BD4680BD80B586B000AFF8602D
:10205C00B9601346FB710023FB750023BB750EE0C2
:10206C00BB7DBA6813441946F868FFF7D7FF0346DF
:10207C001A46FB7D1344FB75BB7D0133BB75BA7DE2
:10208C00FB799A42ECD3FB7D18461837BD4680BDD0
:10209C0080B584B000AF786039600023FB73FEF725
:1020AC0047FEB860FEF744FE0246BB68D31AB3F590
:1020BC00FA7F01D903230CE039687868FFF7AEFF8B
:1020CC0003461A46FB7B1343FB733B68002BE9D09A
:1020DC00FB7B18461037BD4680BD80B586B000AF7F
:1020EC00F860B9603B601346FB710023BB7500239D
:1020FC003B6100233B7507F110031946F868FFF7A5
:10210C00C7FF0346FB7507F116031946F868FFF77E
:10211C0085FF03461A46FB7D1343FB75BA7DBB68EE
:10212C001A70FB7D002B01D0FB7D18E0FB79012B95
:10213C0014D9FB79013BDAB207F110031946F868A0
:10214C00FFF782FF0346FB75BB68581CFB79013B0C
:10215C001A4607F11003194600F0AEF8FB7D18463D
:10216C001837BD4680BD80B487B000AFF860B96049
:10217C001346FB71FB6800221A700023FB753FE0CD
:10218C00FB7DDB08DBB21A46BB6813441B7819468F
:10219C00FB7DDB4303F00703012202FA03F30B4040
:1021AC00002B14BF01230023BB75BB7DFA6812788A
:1021BC0002F04002002A14BF01220022D2B2534086
:1021CC00002B14BF01230023BB75FB681B785B003D
:1021DC00DAB2FB681A70FB681B785AB2BB7DDB0065
:1021EC005BB253405BB2DAB2FB681A70FB681A78C8
:1021FC00BB7D1343DAB2FB681A70FB7D0133FB75B0
:10220C00FA7DFB79DB009A42BADBFB681B785B003A
:10221C005BB243F001035BB2DBB218461C37BD4620
:10222C0080BC7047FFF7EBFB0B480C490C4A0023B2
:10223C0002E0D458C4500433C4188C42F9D3094A70
:10224C00094C002301E013600432A242FBD300F0DE
:10225C000FF8FDF775FF7047000000200C00002000
:10226C00342300080C00002088000020FEE700004A
:10227C0070B500260C4D0D4C641BA410A64209D160
:10228C0000F030F800260A4D0A4C641BA410A6423C
:10229C0005D170BD55F8043B98470136EEE755F86B
:1022AC00043B98470136F2E72C2300082C23000846
:1022BC002C230008302300080A44914200F1FF331C
:1022CC0000D1704710B511F8014B914203F8014F42
:1022DC00F9D110BD03460244934200D1704703F874
:1022EC00011BF9E7F8B500BFF8BC08BC9E46704767
:0C22FC00F8B500BFF8BC08BC9E46704757
:1023080002030405060708090A0B0C0D0E0F10102E
:1023180001020000000000000000000001020304A8
:042328000607080993
:04232C003101000873
:042330000D01000893
:0C23340010000000010000000024F40074
:04000005080022319C
:00000001FF
